:020000040000FA
:1000000005280000000000005728831670308F007C
:1000100007308312990083169F01831298141811D8
:100020009811181618149814831681170117811245
:100030000112811101148114011583161511831603
:1000400005108510051585150512851283128B176D
:100050000B138B160B168B15831616109610161194
:100060009615161296126400831298146400831277
:1000700085100512851283120A30A20083120E30F9
:10008000A30083120A30A4001E30A9000230AA0087
:100090000030AB000030AC0083120430A700013008
:1000A00052218312851405105528640055288312A7
:1000B000831226088312A500831205088312A60066
:1000C00083120B1968288B186E280B18772838298B
:1000D000A90B6B28412183128101382983120B104F
:1000E00083120B128312A7180D29B9283829A61DCF
:1000F0007F28A6197C288312831281013829831254
:1001000001088312A800053028028312031CB628B8
:100110001130280283120318B628220828028312FD
:10012000031C9F2823082802831203189A280230F0
:10013000AA0038292B1CA428AA0B3829B9282B1867
:10014000A928AA0B38290D290230AA000130AB00DA
:1001500038290230AA000030AB003829A80BB1289A
:1001600038290514000000000510AE280230AA004E
:1001700038290230AA0083128510522183122710D9
:10018000A714271183120514831205160530522176
:1001900083120512522183128514640045216430B4
:1001A000522145216430522145216430640052219E
:1001B0004521643052214521643052214521C83007
:1001C0005221C83064000230AA00831285105221E7
:1001D00083122710A7142711831205148312051602
:1001E00005305221831205125221831285146400B6
:1001F000452164305221452164305221452164302B
:10020000640052214521643052214521643052213D
:10021000452152218312810138290230AA0083121C
:1002200085101430522183122714A710271183122E
:100230000510831285160530522183128512643011
:1002400052216400831285144521643052214521D6
:1002500064305221452164306400522145216430CC
:1002600052214521643052214521831281013829D0
:10027000640083128B100B110B108B170B110B16D4
:1002800009001E30A90045210800831605118312BC
:1002900005150A30522183120511831605150A30FF
:1002A00052210800A1005721A10B532908009930C1
:1002B000A000A00B5929A00B5B29A00B5D29080009
:0402C00000340034D2
:02400E00DC33A1
:00000001FF
